{
  "_format": "hh-sol-artifact-1",
  "contractName": "Vote",
  "sourceName": "contracts/Vote.sol",
  "abi": [
    {
      "inputs": [],
      "stateMutability": "nonpayable",
      "type": "constructor"
    },
    {
      "anonymous": false,
      "inputs": [
        {
          "indexed": true,
          "internalType": "uint256",
          "name": "electionId",
          "type": "uint256"
        },
        {
          "indexed": true,
          "internalType": "address",
          "name": "creator",
          "type": "address"
        },
        {
          "indexed": false,
          "internalType": "string",
          "name": "details",
          "type": "string"
        }
      ],
      "name": "ElectionCreated",
      "type": "event"
    },
    {
      "anonymous": false,
      "inputs": [
        {
          "indexed": true,
          "internalType": "uint256",
          "name": "electionId",
          "type": "uint256"
        },
        {
          "indexed": true,
          "internalType": "address",
          "name": "creator",
          "type": "address"
        },
        {
          "indexed": false,
          "internalType": "string",
          "name": "details",
          "type": "string"
        }
      ],
      "name": "ElectionEnded",
      "type": "event"
    },
    {
      "anonymous": false,
      "inputs": [
        {
          "indexed": true,
          "internalType": "uint256",
          "name": "electionId",
          "type": "uint256"
        },
        {
          "indexed": true,
          "internalType": "address",
          "name": "creator",
          "type": "address"
        },
        {
          "indexed": false,
          "internalType": "string",
          "name": "details",
          "type": "string"
        }
      ],
      "name": "ElectionStarted",
      "type": "event"
    },
    {
      "anonymous": false,
      "inputs": [
        {
          "indexed": true,
          "internalType": "uint256",
          "name": "electionId",
          "type": "uint256"
        },
        {
          "indexed": true,
          "internalType": "address",
          "name": "voter",
          "type": "address"
        },
        {
          "indexed": true,
          "internalType": "uint256",
          "name": "candidateId",
          "type": "uint256"
        }
      ],
      "name": "ElectionVoted",
      "type": "event"
    },
    {
      "anonymous": false,
      "inputs": [
        {
          "indexed": false,
          "internalType": "address",
          "name": "account",
          "type": "address"
        }
      ],
      "name": "Paused",
      "type": "event"
    },
    {
      "anonymous": false,
      "inputs": [
        {
          "indexed": false,
          "internalType": "address",
          "name": "account",
          "type": "address"
        }
      ],
      "name": "Unpaused",
      "type": "event"
    },
    {
      "inputs": [
        {
          "internalType": "uint256",
          "name": "",
          "type": "uint256"
        }
      ],
      "name": "allCandidates",
      "outputs": [
        {
          "internalType": "uint256",
          "name": "electionId",
          "type": "uint256"
        },
        {
          "internalType": "uint256",
          "name": "candidateId",
          "type": "uint256"
        },
        {
          "internalType": "string",
          "name": "photoHash",
          "type": "string"
        },
        {
          "internalType": "string",
          "name": "name",
          "type": "string"
        },
        {
          "internalType": "uint256",
          "name": "vote",
          "type": "uint256"
        }
      ],
      "stateMutability": "view",
      "type": "function"
    },
    {
      "inputs": [
        {
          "internalType": "uint256",
          "name": "",
          "type": "uint256"
        }
      ],
      "name": "allElections",
      "outputs": [
        {
          "internalType": "uint256",
          "name": "electionId",
          "type": "uint256"
        },
        {
          "internalType": "address",
          "name": "creator",
          "type": "address"
        },
        {
          "internalType": "address",
          "name": "identifier",
          "type": "address"
        },
        {
          "internalType": "string",
          "name": "details",
          "type": "string"
        },
        {
          "internalType": "bool",
          "name": "active",
          "type": "bool"
        }
      ],
      "stateMutability": "view",
      "type": "function"
    },
    {
      "inputs": [],
      "name": "booth",
      "outputs": [
        {
          "components": [
            {
              "internalType": "uint256",
              "name": "electionId",
              "type": "uint256"
            },
            {
              "internalType": "address",
              "name": "creator",
              "type": "address"
            },
            {
              "internalType": "address",
              "name": "identifier",
              "type": "address"
            },
            {
              "internalType": "string",
              "name": "details",
              "type": "string"
            },
            {
              "internalType": "bool",
              "name": "active",
              "type": "bool"
            },
            {
              "components": [
                {
                  "internalType": "uint256",
                  "name": "electionId",
                  "type": "uint256"
                },
                {
                  "internalType": "uint256",
                  "name": "candidateId",
                  "type": "uint256"
                },
                {
                  "internalType": "string",
                  "name": "photoHash",
                  "type": "string"
                },
                {
                  "internalType": "string",
                  "name": "name",
                  "type": "string"
                },
                {
                  "internalType": "uint256",
                  "name": "vote",
                  "type": "uint256"
                }
              ],
              "internalType": "struct Vote.Candidate[]",
              "name": "candidates",
              "type": "tuple[]"
            }
          ],
          "internalType": "struct Vote.Election[]",
          "name": "",
          "type": "tuple[]"
        }
      ],
      "stateMutability": "view",
      "type": "function"
    },
    {
      "inputs": [],
      "name": "candidateId",
      "outputs": [
        {
          "internalType": "uint256",
          "name": "",
          "type": "uint256"
        }
      ],
      "stateMutability": "view",
      "type": "function"
    },
    {
      "inputs": [],
      "name": "electionId",
      "outputs": [
        {
          "internalType": "uint256",
          "name": "",
          "type": "uint256"
        }
      ],
      "stateMutability": "view",
      "type": "function"
    },
    {
      "inputs": [
        {
          "internalType": "uint256",
          "name": "_electionId",
          "type": "uint256"
        }
      ],
      "name": "getWinner",
      "outputs": [
        {
          "components": [
            {
              "internalType": "uint256",
              "name": "electionId",
              "type": "uint256"
            },
            {
              "internalType": "uint256",
              "name": "candidateId",
              "type": "uint256"
            },
            {
              "internalType": "string",
              "name": "photoHash",
              "type": "string"
            },
            {
              "internalType": "string",
              "name": "name",
              "type": "string"
            },
            {
              "internalType": "uint256",
              "name": "vote",
              "type": "uint256"
            }
          ],
          "internalType": "struct Vote.Candidate[]",
          "name": "",
          "type": "tuple[]"
        },
        {
          "internalType": "string",
          "name": "",
          "type": "string"
        }
      ],
      "stateMutability": "nonpayable",
      "type": "function"
    },
    {
      "inputs": [],
      "name": "myElections",
      "outputs": [
        {
          "components": [
            {
              "internalType": "uint256",
              "name": "electionId",
              "type": "uint256"
            },
            {
              "internalType": "address",
              "name": "creator",
              "type": "address"
            },
            {
              "internalType": "address",
              "name": "identifier",
              "type": "address"
            },
            {
              "internalType": "string",
              "name": "details",
              "type": "string"
            },
            {
              "internalType": "bool",
              "name": "active",
              "type": "bool"
            },
            {
              "components": [
                {
                  "internalType": "uint256",
                  "name": "electionId",
                  "type": "uint256"
                },
                {
                  "internalType": "uint256",
                  "name": "candidateId",
                  "type": "uint256"
                },
                {
                  "internalType": "string",
                  "name": "photoHash",
                  "type": "string"
                },
                {
                  "internalType": "string",
                  "name": "name",
                  "type": "string"
                },
                {
                  "internalType": "uint256",
                  "name": "vote",
                  "type": "uint256"
                }
              ],
              "internalType": "struct Vote.Candidate[]",
              "name": "candidates",
              "type": "tuple[]"
            }
          ],
          "internalType": "struct Vote.Election[]",
          "name": "",
          "type": "tuple[]"
        }
      ],
      "stateMutability": "view",
      "type": "function"
    },
    {
      "inputs": [],
      "name": "owner",
      "outputs": [
        {
          "internalType": "address",
          "name": "",
          "type": "address"
        }
      ],
      "stateMutability": "view",
      "type": "function"
    },
    {
      "inputs": [],
      "name": "pause",
      "outputs": [],
      "stateMutability": "nonpayable",
      "type": "function"
    },
    {
      "inputs": [],
      "name": "paused",
      "outputs": [
        {
          "internalType": "bool",
          "name": "",
          "type": "bool"
        }
      ],
      "stateMutability": "view",
      "type": "function"
    },
    {
      "inputs": [
        {
          "internalType": "address",
          "name": "_identifier",
          "type": "address"
        },
        {
          "internalType": "string",
          "name": "_details",
          "type": "string"
        },
        {
          "internalType": "string[]",
          "name": "_candidate",
          "type": "string[]"
        },
        {
          "internalType": "string[]",
          "name": "_photoHash",
          "type": "string[]"
        }
      ],
      "name": "setUp",
      "outputs": [],
      "stateMutability": "nonpayable",
      "type": "function"
    },
    {
      "inputs": [
        {
          "internalType": "uint256",
          "name": "_electionId",
          "type": "uint256"
        }
      ],
      "name": "start",
      "outputs": [],
      "stateMutability": "nonpayable",
      "type": "function"
    },
    {
      "inputs": [],
      "name": "tie",
      "outputs": [
        {
          "internalType": "string",
          "name": "",
          "type": "string"
        }
      ],
      "stateMutability": "view",
      "type": "function"
    },
    {
      "inputs": [],
      "name": "unpause",
      "outputs": [],
      "stateMutability": "nonpayable",
      "type": "function"
    },
    {
      "inputs": [
        {
          "internalType": "uint256",
          "name": "_candidateId",
          "type": "uint256"
        },
        {
          "internalType": "uint256",
          "name": "_electionId",
          "type": "uint256"
        }
      ],
      "name": "vote",
      "outputs": [],
      "stateMutability": "nonpayable",
      "type": "function"
    },
    {
      "inputs": [
        {
          "internalType": "uint256",
          "name": "",
          "type": "uint256"
        },
        {
          "internalType": "address",
          "name": "",
          "type": "address"
        }
      ],
      "name": "voted",
      "outputs": [
        {
          "internalType": "bool",
          "name": "",
          "type": "bool"
        }
      ],
      "stateMutability": "view",
      "type": "function"
    },
    {
      "inputs": [],
      "name": "winningCandidate",
      "outputs": [
        {
          "components": [
            {
              "internalType": "uint256",
              "name": "electionId",
              "type": "uint256"
            },
            {
              "internalType": "uint256",
              "name": "candidateId",
              "type": "uint256"
            },
            {
              "internalType": "string",
              "name": "photoHash",
              "type": "string"
            },
            {
              "internalType": "string",
              "name": "name",
              "type": "string"
            },
            {
              "internalType": "uint256",
              "name": "vote",
              "type": "uint256"
            }
          ],
          "internalType": "struct Vote.Candidate",
          "name": "",
          "type": "tuple"
        }
      ],
      "stateMutability": "view",
      "type": "function"
    }
  ],
  "bytecode": "0x60806040526000600155600060025534801561001a57600080fd5b5060008060006101000a81548160ff02191690831515021790555033600060016101000a81548173ffffffffffffffffffffffffffffffffffffffff021916908373ffffffffffffffffffffffffffffffffffffffff160217905550613821806100856000396000f3fe608060405234801561001057600080fd5b506004361061010b5760003560e01c80638456cb59116100a2578063b384abef11610071578063b384abef14610271578063b40210931461028d578063d28178d7146102c1578063d6f5c939146102df578063fc60c8b3146102fd5761010b565b80638456cb591461020f5780638da5cb5b1461021957806395805dad146102375780639f91e6bf146102535761010b565b80635277b4ae116100de5780635277b4ae146101875780635c975abb146101b757806366b6e859146101d55780638194e7af146101f35761010b565b8063051364d4146101105780631ae084251461012e5780633f4ba83a1461014c5780634129b2c914610156575b600080fd5b610118610331565b60405161012591906130ed565b60405180910390f35b610136610337565b6040516101439190612eca565b60405180910390f35b610154610811565b005b610170600480360381019061016b91906127ad565b610875565b60405161017e929190612e93565b60405180910390f35b6101a1600480360381019061019c91906127ff565b610e61565b6040516101ae9190612eec565b60405180910390f35b6101bf610e90565b6040516101cc9190612eec565b60405180910390f35b6101dd610ea6565b6040516101ea9190612eca565b60405180910390f35b61020d600480360381019061020891906126fa565b6113ba565b005b61021761195a565b005b6102216119be565b60405161022e9190612e78565b60405180910390f35b610251600480360381019061024c91906127ad565b6119e4565b005b61025b611b66565b60405161026891906130ed565b60405180910390f35b61028b6004803603810190610286919061283b565b611b6c565b005b6102a760048036038101906102a291906127ad565b611f3a565b6040516102b8959493929190613108565b60405180910390f35b6102c9612045565b6040516102d691906130cb565b60405180910390f35b6102e76121b4565b6040516102f49190612f07565b60405180910390f35b610317600480360381019061031291906127ad565b612242565b604051610328959493929190613162565b60405180910390f35b60025481565b6060610341610e90565b15610381576040517f08c379a00000000000000000000000000000000000000000000000000000000081526004016103789061300b565b60405180910390fd5b600080600254905060008167ffffffffffffffff8111156103cb577f4e487b7100000000000000000000000000000000000000000000000000000000600052604160045260246000fd5b60405190808252806020026020018201604052801561040457816020015b6103f16124d3565b8152602001906001900390816103e95790505b50905060005b6002548110156108075760011515600360006001846104299190613335565b815260200190815260200160002060040160009054906101000a900460ff16151514156107f4576000600360006001846104639190613335565b81526020019081526020016000206000015490506000600360008381526020019081526020016000209050806040518060c0016040529081600082015481526020016001820160009054906101000a900473ffffffffffffffffffffffffffffffffffffffff1673ffffffffffffffffffffffffffffffffffffffff1673ffffffffffffffffffffffffffffffffffffffff1681526020016002820160009054906101000a900473ffffffffffffffffffffffffffffffffffffffff1673ffffffffffffffffffffffffffffffffffffffff1673ffffffffffffffffffffffffffffffffffffffff16815260200160038201805461056090613415565b80601f016020809104026020016040519081016040528092919081815260200182805461058c90613415565b80156105d95780601f106105ae576101008083540402835291602001916105d9565b820191906000526020600020905b8154815290600101906020018083116105bc57829003601f168201915b505050505081526020016004820160009054906101000a900460ff1615151515815260200160058201805480602002602001604051908101604052809291908181526020016000905b8282101561079657838290600052602060002090600502016040518060a0016040529081600082015481526020016001820154815260200160028201805461066990613415565b80601f016020809104026020016040519081016040528092919081815260200182805461069590613415565b80156106e25780601f106106b7576101008083540402835291602001916106e2565b820191906000526020600020905b8154815290600101906020018083116106c557829003601f168201915b505050505081526020016003820180546106fb90613415565b80601f016020809104026020016040519081016040528092919081815260200182805461072790613415565b80156107745780601f1061074957610100808354040283529160200191610774565b820191906000526020600020905b81548152906001019060200180831161075757829003601f168201915b5050505050815260200160048201548152505081526020019060010190610622565b50505050815250508487815181106107d7577f4e487b7100000000000000000000000000000000000000000000000000000000600052603260045260246000fd5b60200260200101819052506001866107ef9190613335565b955050505b80806107ff90613478565b91505061040a565b5080935050505090565b600060019054906101000a900473ffffffffffffffffffffffffffffffffffffffff1673ffffffffffffffffffffffffffffffffffffffff163373ffffffffffffffffffffffffffffffffffffffff161461086b57600080fd5b610873612388565b565b606080610880610e90565b156108c0576040517f08c379a00000000000000000000000000000000000000000000000000000000081526004016108b79061300b565b60405180910390fd5b3373ffffffffffffffffffffffffffffffffffffffff166003600085815260200190815260200160002060010160009054906101000a900473ffffffffffffffffffffffffffffffffffffffff1673ffffffffffffffffffffffffffffffffffffffff1614610964576040517f08c379a000000000000000000000000000000000000000000000000000000000815260040161095b90612f8b565b60405180910390fd5b60006003600085815260200190815260200160002060040160006101000a81548160ff021916908315150217905550600060015467ffffffffffffffff8111156109d7577f4e487b7100000000000000000000000000000000000000000000000000000000600052604160045260246000fd5b604051908082528060200260200182016040528015610a1057816020015b6109fd612537565b8152602001906001900390816109f55790505b50905060008060005b600154811015610dc5578660046000600184610a359190613335565b8152602001908152602001600020600001541415610d4e578260046000600184610a5f9190613335565b8152602001908152602001600020600401541115610cd55760046000600183610a889190613335565b8152602001908152602001600020600401549250600060046000600184610aaf9190613335565b8152602001908152602001600020600101549050806007819055506000600460008381526020019081526020016000209050806040518060a00160405290816000820154815260200160018201548152602001600282018054610b1190613415565b80601f0160208091040260200160405190810160405280929190818152602001828054610b3d90613415565b8015610b8a5780601f10610b5f57610100808354040283529160200191610b8a565b820191906000526020600020905b815481529060010190602001808311610b6d57829003601f168201915b50505050508152602001600382018054610ba390613415565b80601f0160208091040260200160405190810160405280929190818152602001828054610bcf90613415565b8015610c1c5780601f10610bf157610100808354040283529160200191610c1c565b820191906000526020600020905b815481529060010190602001808311610bff57829003601f168201915b50505050508152602001600482015481525050868581518110610c68577f4e487b7100000000000000000000000000000000000000000000000000000000600052603260045260246000fd5b6020026020010181905250600184610c809190613335565b93506040518060400160405280601081526020017f5765206861766520612077696e6e65720000000000000000000000000000000081525060069080519060200190610ccd929190612566565b505050610d4d565b8260046000600184610ce79190613335565b8152602001908152602001600020600401541415610d4c576040518060400160405280601381526020017f5468697320656e64656420696e2061207469650000000000000000000000000081525060069080519060200190610d4a929190612566565b505b5b5b3373ffffffffffffffffffffffffffffffffffffffff16877fc2959c10dc152aeb8c97eb93ad4eb0cbf30909633cc32c140927b7f3325d44b1600360008b8152602001908152602001600020600301604051610daa9190612f29565b60405180910390a38080610dbd90613478565b915050610a19565b50826006808054610dd590613415565b80601f0160208091040260200160405190810160405280929190818152602001828054610e0190613415565b8015610e4e5780601f10610e2357610100808354040283529160200191610e4e565b820191906000526020600020905b815481529060010190602001808311610e3157829003601f168201915b5050505050905094509450505050915091565b60056020528160005260406000206020528060005260406000206000915091509054906101000a900460ff1681565b60008060009054906101000a900460ff16905090565b6060610eb0610e90565b15610ef0576040517f08c379a0000000000000000000000000000000000000000000000000000000008152600401610ee79061300b565b60405180910390fd5b600080600254905060008167ffffffffffffffff811115610f3a577f4e487b7100000000000000000000000000000000000000000000000000000000600052604160045260246000fd5b604051908082528060200260200182016040528015610f7357816020015b610f606124d3565b815260200190600190039081610f585790505b50905060005b6002548110156113b0573373ffffffffffffffffffffffffffffffffffffffff1660036000600184610fab9190613335565b815260200190815260200160002060010160009054906101000a900473ffffffffffffffffffffffffffffffffffffffff1673ffffffffffffffffffffffffffffffffffffffff16141561139d5760006003600060018461100c9190613335565b81526020019081526020016000206000015490506000600360008381526020019081526020016000209050806040518060c0016040529081600082015481526020016001820160009054906101000a900473ffffffffffffffffffffffffffffffffffffffff1673ffffffffffffffffffffffffffffffffffffffff1673ffffffffffffffffffffffffffffffffffffffff1681526020016002820160009054906101000a900473ffffffffffffffffffffffffffffffffffffffff1673ffffffffffffffffffffffffffffffffffffffff1673ffffffffffffffffffffffffffffffffffffffff16815260200160038201805461110990613415565b80601f016020809104026020016040519081016040528092919081815260200182805461113590613415565b80156111825780601f1061115757610100808354040283529160200191611182565b820191906000526020600020905b81548152906001019060200180831161116557829003601f168201915b505050505081526020016004820160009054906101000a900460ff1615151515815260200160058201805480602002602001604051908101604052809291908181526020016000905b8282101561133f57838290600052602060002090600502016040518060a0016040529081600082015481526020016001820154815260200160028201805461121290613415565b80601f016020809104026020016040519081016040528092919081815260200182805461123e90613415565b801561128b5780601f106112605761010080835404028352916020019161128b565b820191906000526020600020905b81548152906001019060200180831161126e57829003601f168201915b505050505081526020016003820180546112a490613415565b80601f01602080910402602001604051908101604052809291908181526020018280546112d090613415565b801561131d5780601f106112f25761010080835404028352916020019161131d565b820191906000526020600020905b81548152906001019060200180831161130057829003601f168201915b50505050508152602001600482015481525050815260200190600101906111cb565b5050505081525050848781518110611380577f4e487b7100000000000000000000000000000000000000000000000000000000600052603260045260246000fd5b60200260200101819052506001866113989190613335565b955050505b80806113a890613478565b915050610f79565b5080935050505090565b6113c2610e90565b15611402576040517f08c379a00000000000000000000000000000000000000000000000000000000081526004016113f99061300b565b60405180910390fd5b600073ffffffffffffffffffffffffffffffffffffffff168673ffffffffffffffffffffffffffffffffffffffff161415611472576040517f08c379a00000000000000000000000000000000000000000000000000000000081526004016114699061308b565b60405180910390fd5b60008551116114b6576040517f08c379a00000000000000000000000000000000000000000000000000000000081526004016114ad9061306b565b60405180910390fd5b600084849050116114fc576040517f08c379a00000000000000000000000000000000000000000000000000000000081526004016114f39061302b565b60405180910390fd5b60008282905011611542576040517f08c379a000000000000000000000000000000000000000000000000000000000815260040161153990612feb565b60405180910390fd5b81819050848490501461158a576040517f08c379a0000000000000000000000000000000000000000000000000000000008152600401611581906130ab565b60405180910390fd5b6002600081548092919061159d90613478565b9190505550600060036000600254815260200190815260200160002090506002548160000181905550338160010160006101000a81548173ffffffffffffffffffffffffffffffffffffffff021916908373ffffffffffffffffffffffffffffffffffffffff160217905550868160020160006101000a81548173ffffffffffffffffffffffffffffffffffffffff021916908373ffffffffffffffffffffffffffffffffffffffff16021790555085816003019080519060200190611664929190612566565b5060008160040160006101000a81548160ff02191690831515021790555060005b858590508110156118ff57600160008154809291906116a390613478565b919050555060006040518060a00160405280600254815260200160015481526020018686858181106116fe577f4e487b7100000000000000000000000000000000000000000000000000000000600052603260045260246000fd5b905060200281019061171091906131c3565b8080601f016020809104026020016040519081016040528093929190818152602001838380828437600081840152601f19601f820116905080830192505050505050508152602001888885818110611791577f4e487b7100000000000000000000000000000000000000000000000000000000600052603260045260246000fd5b90506020028101906117a391906131c3565b8080601f016020809104026020016040519081016040528093929190818152602001838380828437600081840152601f19601f820116905080830192505050505050508152602001600081525090508060046000600154815260200190815260200160002060008201518160000155602082015181600101556040820151816002019080519060200190611838929190612566565b506060820151816003019080519060200190611855929190612566565b506080820151816004015590505082600501819080600181540180825580915050600190039060005260206000209060050201600090919091909150600082015181600001556020820151816001015560408201518160020190805190602001906118c1929190612566565b5060608201518160030190805190602001906118de929190612566565b506080820151816004015550505080806118f790613478565b915050611685565b503373ffffffffffffffffffffffffffffffffffffffff166002547f0899cd1399cb5255769838bb5633e6d9fc0b49629382ae5b27bbaebd44d31870886040516119499190612f07565b60405180910390a350505050505050565b600060019054906101000a900473ffffffffffffffffffffffffffffffffffffffff1673ffffffffffffffffffffffffffffffffffffffff163373ffffffffffffffffffffffffffffffffffffffff16146119b457600080fd5b6119bc612429565b565b600060019054906101000a900473ffffffffffffffffffffffffffffffffffffffff1681565b6119ec610e90565b15611a2c576040517f08c379a0000000000000000000000000000000000000000000000000000000008152600401611a239061300b565b60405180910390fd5b3373ffffffffffffffffffffffffffffffffffffffff166003600083815260200190815260200160002060010160009054906101000a900473ffffffffffffffffffffffffffffffffffffffff1673ffffffffffffffffffffffffffffffffffffffff1614611ad0576040517f08c379a0000000000000000000000000000000000000000000000000000000008152600401611ac790612f6b565b60405180910390fd5b60016003600083815260200190815260200160002060040160006101000a81548160ff0219169083151502179055503373ffffffffffffffffffffffffffffffffffffffff16817f1d3e6ecc72c1aaf1c7fe256cec431aef548abfec22c0b229ac7462e7e03b819960036000858152602001908152602001600020600301604051611b5b9190612f29565b60405180910390a350565b60015481565b611b74610e90565b15611bb4576040517f08c379a0000000000000000000000000000000000000000000000000000000008152600401611bab9061300b565b60405180910390fd5b600015156005600083815260200190815260200160002060003373ffffffffffffffffffffffffffffffffffffffff1673ffffffffffffffffffffffffffffffffffffffff16815260200190815260200160002060009054906101000a900460ff16151514611c58576040517f08c379a0000000000000000000000000000000000000000000000000000000008152600401611c4f90612fcb565b60405180910390fd5b600115156003600083815260200190815260200160002060040160009054906101000a900460ff16151514611cc2576040517f08c379a0000000000000000000000000000000000000000000000000000000008152600401611cb99061304b565b60405180910390fd5b60006003600083815260200190815260200160002060020160009054906101000a900473ffffffffffffffffffffffffffffffffffffffff16905060008173ffffffffffffffffffffffffffffffffffffffff166370a08231336040518263ffffffff1660e01b8152600401611d389190612e78565b60206040518083038186803b158015611d5057600080fd5b505afa158015611d64573d6000803e3d6000fd5b505050506040513d601f19601f82011682018060405250810190611d8891906127d6565b1180611e1c575060008173ffffffffffffffffffffffffffffffffffffffff166370a08231336040518263ffffffff1660e01b8152600401611dca9190612e78565b60206040518083038186803b158015611de257600080fd5b505afa158015611df6573d6000803e3d6000fd5b505050506040513d601f19601f82011682018060405250810190611e1a91906127d6565b115b611e5b576040517f08c379a0000000000000000000000000000000000000000000000000000000008152600401611e5290612fab565b60405180910390fd5b60016005600084815260200190815260200160002060003373ffffffffffffffffffffffffffffffffffffffff1673ffffffffffffffffffffffffffffffffffffffff16815260200190815260200160002060006101000a81548160ff021916908315150217905550600460008481526020019081526020016000206004016000815480929190611eeb90613478565b9190505550823373ffffffffffffffffffffffffffffffffffffffff16837f30ff8c64c6bb707ec8eeb12d2666180d07e3455d987db0bfa83152dd735d7adc60405160405180910390a4505050565b60036020528060005260406000206000915090508060000154908060010160009054906101000a900473ffffffffffffffffffffffffffffffffffffffff16908060020160009054906101000a900473ffffffffffffffffffffffffffffffffffffffff1690806003018054611faf90613415565b80601f0160208091040260200160405190810160405280929190818152602001828054611fdb90613415565b80156120285780601f10611ffd57610100808354040283529160200191612028565b820191906000526020600020905b81548152906001019060200180831161200b57829003601f168201915b5050505050908060040160009054906101000a900460ff16905085565b61204d612537565b6004600060075481526020019081526020016000206040518060a0016040529081600082015481526020016001820154815260200160028201805461209190613415565b80601f01602080910402602001604051908101604052809291908181526020018280546120bd90613415565b801561210a5780601f106120df5761010080835404028352916020019161210a565b820191906000526020600020905b8154815290600101906020018083116120ed57829003601f168201915b5050505050815260200160038201805461212390613415565b80601f016020809104026020016040519081016040528092919081815260200182805461214f90613415565b801561219c5780601f106121715761010080835404028352916020019161219c565b820191906000526020600020905b81548152906001019060200180831161217f57829003601f168201915b50505050508152602001600482015481525050905090565b600680546121c190613415565b80601f01602080910402602001604051908101604052809291908181526020018280546121ed90613415565b801561223a5780601f1061220f5761010080835404028352916020019161223a565b820191906000526020600020905b81548152906001019060200180831161221d57829003601f168201915b505050505081565b600460205280600052604060002060009150905080600001549080600101549080600201805461227190613415565b80601f016020809104026020016040519081016040528092919081815260200182805461229d90613415565b80156122ea5780601f106122bf576101008083540402835291602001916122ea565b820191906000526020600020905b8154815290600101906020018083116122cd57829003601f168201915b5050505050908060030180546122ff90613415565b80601f016020809104026020016040519081016040528092919081815260200182805461232b90613415565b80156123785780601f1061234d57610100808354040283529160200191612378565b820191906000526020600020905b81548152906001019060200180831161235b57829003601f168201915b5050505050908060040154905085565b612390610e90565b6123cf576040517f08c379a00000000000000000000000000000000000000000000000000000000081526004016123c690612f4b565b60405180910390fd5b60008060006101000a81548160ff0219169083151502179055507f5db9ee0a495bf2e6ff9c91a7834c1ba4fdd244a5e8aa4e537bd38aeae4b073aa6124126124cb565b60405161241f9190612e78565b60405180910390a1565b612431610e90565b15612471576040517f08c379a00000000000000000000000000000000000000000000000000000000081526004016124689061300b565b60405180910390fd5b60016000806101000a81548160ff0219169083151502179055507f62e78cea01bee320cd4e420270b5ea74000d11b0c9f74754ebdbfc544b05a2586124b46124cb565b6040516124c19190612e78565b60405180910390a1565b600033905090565b6040518060c0016040528060008152602001600073ffffffffffffffffffffffffffffffffffffffff168152602001600073ffffffffffffffffffffffffffffffffffffffff16815260200160608152602001600015158152602001606081525090565b6040518060a0016040528060008152602001600081526020016060815260200160608152602001600081525090565b82805461257290613415565b90600052602060002090601f01602090048101928261259457600085556125db565b82601f106125ad57805160ff19168380011785556125db565b828001600101855582156125db579182015b828111156125da5782518255916020019190600101906125bf565b5b5090506125e891906125ec565b5090565b5b808211156126055760008160009055506001016125ed565b5090565b600061261c6126178461323f565b61321a565b90508281526020810184848401111561263457600080fd5b61263f8482856133d3565b509392505050565b600081359050612656816137bd565b92915050565b60008083601f84011261266e57600080fd5b8235905067ffffffffffffffff81111561268757600080fd5b60208301915083602082028301111561269f57600080fd5b9250929050565b600082601f8301126126b757600080fd5b81356126c7848260208601612609565b91505092915050565b6000813590506126df816137d4565b92915050565b6000815190506126f4816137d4565b92915050565b6000806000806000806080878903121561271357600080fd5b600061272189828a01612647565b965050602087013567ffffffffffffffff81111561273e57600080fd5b61274a89828a016126a6565b955050604087013567ffffffffffffffff81111561276757600080fd5b61277389828a0161265c565b9450945050606087013567ffffffffffffffff81111561279257600080fd5b61279e89828a0161265c565b92509250509295509295509295565b6000602082840312156127bf57600080fd5b60006127cd848285016126d0565b91505092915050565b6000602082840312156127e857600080fd5b60006127f6848285016126e5565b91505092915050565b6000806040838503121561281257600080fd5b6000612820858286016126d0565b925050602061283185828601612647565b9150509250929050565b6000806040838503121561284e57600080fd5b600061285c858286016126d0565b925050602061286d858286016126d0565b9150509250929050565b60006128838383612cd0565b905092915050565b60006128978383612dca565b905092915050565b6128a88161338b565b82525050565b6128b78161338b565b82525050565b60006128c8826132a5565b6128d281856132e0565b9350836020820285016128e485613270565b8060005b8581101561292057848403895281516129018582612877565b945061290c836132c6565b925060208a019950506001810190506128e8565b50829750879550505050505092915050565b600061293d826132a5565b61294781856132f1565b93508360208202850161295985613270565b8060005b8581101561299557848403895281516129768582612877565b9450612981836132c6565b925060208a0199505060018101905061295d565b50829750879550505050505092915050565b60006129b2826132b0565b6129bc8185613302565b9350836020820285016129ce85613280565b8060005b85811015612a0a57848403895281516129eb858261288b565b94506129f6836132d3565b925060208a019950506001810190506129d2565b50829750879550505050505092915050565b612a258161339d565b82525050565b612a348161339d565b82525050565b6000612a45826132bb565b612a4f8185613313565b9350612a5f8185602086016133e2565b612a688161354e565b840191505092915050565b6000612a7e826132bb565b612a888185613324565b9350612a988185602086016133e2565b612aa18161354e565b840191505092915050565b60008154612ab981613415565b612ac38186613324565b94506001821660008114612ade5760018114612af057612b23565b60ff1983168652602086019350612b23565b612af985613290565b60005b83811015612b1b57815481890152600182019150602081019050612afc565b808801955050505b50505092915050565b6000612b39601483613324565b9150612b448261355f565b602082019050919050565b6000612b5c602483613324565b9150612b6782613588565b604082019050919050565b6000612b7f602383613324565b9150612b8a826135d7565b604082019050919050565b6000612ba2601f83613324565b9150612bad82613626565b602082019050919050565b6000612bc5601683613324565b9150612bd08261364f565b602082019050919050565b6000612be8601683613324565b9150612bf382613678565b602082019050919050565b6000612c0b601083613324565b9150612c16826136a1565b602082019050919050565b6000612c2e601a83613324565b9150612c39826136ca565b602082019050919050565b6000612c51601783613324565b9150612c5c826136f3565b602082019050919050565b6000612c74601883613324565b9150612c7f8261371c565b602082019050919050565b6000612c97601883613324565b9150612ca282613745565b602082019050919050565b6000612cba603383613324565b9150612cc58261376e565b604082019050919050565b600060a083016000830151612ce86000860182612e5a565b506020830151612cfb6020860182612e5a565b5060408301518482036040860152612d138282612a3a565b91505060608301518482036060860152612d2d8282612a3a565b9150506080830151612d426080860182612e5a565b508091505092915050565b600060a083016000830151612d656000860182612e5a565b506020830151612d786020860182612e5a565b5060408301518482036040860152612d908282612a3a565b91505060608301518482036060860152612daa8282612a3a565b9150506080830151612dbf6080860182612e5a565b508091505092915050565b600060c083016000830151612de26000860182612e5a565b506020830151612df5602086018261289f565b506040830151612e08604086018261289f565b5060608301518482036060860152612e208282612a3a565b9150506080830151612e356080860182612a1c565b5060a083015184820360a0860152612e4d82826128bd565b9150508091505092915050565b612e63816133c9565b82525050565b612e72816133c9565b82525050565b6000602082019050612e8d60008301846128ae565b92915050565b60006040820190508181036000830152612ead8185612932565b90508181036020830152612ec18184612a73565b90509392505050565b60006020820190508181036000830152612ee481846129a7565b905092915050565b6000602082019050612f016000830184612a2b565b92915050565b60006020820190508181036000830152612f218184612a73565b905092915050565b60006020820190508181036000830152612f438184612aac565b905092915050565b60006020820190508181036000830152612f6481612b2c565b9050919050565b60006020820190508181036000830152612f8481612b4f565b9050919050565b60006020820190508181036000830152612fa481612b72565b9050919050565b60006020820190508181036000830152612fc481612b95565b9050919050565b60006020820190508181036000830152612fe481612bb8565b9050919050565b6000602082019050818103600083015261300481612bdb565b9050919050565b6000602082019050818103600083015261302481612bfe565b9050919050565b6000602082019050818103600083015261304481612c21565b9050919050565b6000602082019050818103600083015261306481612c44565b9050919050565b6000602082019050818103600083015261308481612c67565b9050919050565b600060208201905081810360008301526130a481612c8a565b9050919050565b600060208201905081810360008301526130c481612cad565b9050919050565b600060208201905081810360008301526130e58184612d4d565b905092915050565b60006020820190506131026000830184612e69565b92915050565b600060a08201905061311d6000830188612e69565b61312a60208301876128ae565b61313760408301866128ae565b81810360608301526131498185612a73565b90506131586080830184612a2b565b9695505050505050565b600060a0820190506131776000830188612e69565b6131846020830187612e69565b81810360408301526131968186612a73565b905081810360608301526131aa8185612a73565b90506131b96080830184612e69565b9695505050505050565b600080833560016020038436030381126131dc57600080fd5b80840192508235915067ffffffffffffffff8211156131fa57600080fd5b60208301925060018202360383131561321257600080fd5b509250929050565b6000613224613235565b90506132308282613447565b919050565b6000604051905090565b600067ffffffffffffffff82111561325a5761325961351f565b5b6132638261354e565b9050602081019050919050565b6000819050602082019050919050565b6000819050602082019050919050565b60008190508160005260206000209050919050565b600081519050919050565b600081519050919050565b600081519050919050565b6000602082019050919050565b6000602082019050919050565b600082825260208201905092915050565b600082825260208201905092915050565b600082825260208201905092915050565b600082825260208201905092915050565b600082825260208201905092915050565b6000613340826133c9565b915061334b836133c9565b9250827fffffffffffffffffffffffffffffffffffffffffffffffffffffffffffffffff038211156133805761337f6134c1565b5b828201905092915050565b6000613396826133a9565b9050919050565b60008115159050919050565b600073ffffffffffffffffffffffffffffffffffffffff82169050919050565b6000819050919050565b82818337600083830152505050565b60005b838110156134005780820151818401526020810190506133e5565b8381111561340f576000848401525b50505050565b6000600282049050600182168061342d57607f821691505b60208210811415613441576134406134f0565b5b50919050565b6134508261354e565b810181811067ffffffffffffffff8211171561346f5761346e61351f565b5b80604052505050565b6000613483826133c9565b91507fffffffffffffffffffffffffffffffffffffffffffffffffffffffffffffffff8214156134b6576134b56134c1565b5b600182019050919050565b7f4e487b7100000000000000000000000000000000000000000000000000000000600052601160045260246000fd5b7f4e487b7100000000000000000000000000000000000000000000000000000000600052602260045260246000fd5b7f4e487b7100000000000000000000000000000000000000000000000000000000600052604160045260246000fd5b6000601f19601f8301169050919050565b7f5061757361626c653a206e6f7420706175736564000000000000000000000000600082015250565b7f6f6e6c79206d6f64657261746f722063616e20737461727420616e20656c656360008201527f74696f6e00000000000000000000000000000000000000000000000000000000602082015250565b7f6f6e6c79206d6f64657261746f72732063616e20616e6e6f756e63652077696e60008201527f6e65720000000000000000000000000000000000000000000000000000000000602082015250565b7f6f6e6c79207265676973746572656420766f746572732063616e20766f746500600082015250565b7f796f75206861766520616c726561647920766f74656400000000000000000000600082015250565b7f506c656173652061646420736f6d652070686f746f7300000000000000000000600082015250565b7f5061757361626c653a2070617573656400000000000000000000000000000000600082015250565b7f506c656173652061646420736f6d652063616e64696461746573000000000000600082015250565b7f656c656374696f6e2068617665206e6f7420626567756e000000000000000000600082015250565b7f696e76616c696420656c656374696f6e2064657461696c730000000000000000600082015250565b7f696e76616c696420636f6e747261637420616464726573730000000000000000600082015250565b7f506c6561736520616464207468652073616d65206e756d626572206f6620636160008201527f6e6469646174657320616e642070686f746f7300000000000000000000000000602082015250565b6137c68161338b565b81146137d157600080fd5b50565b6137dd816133c9565b81146137e857600080fd5b5056fea2646970667358221220c3513c37a6bde8e10fedff527681fc99d70517cbfb69006ff272e6b6957508d564736f6c63430008040033",
  "linkReferences": {},
  "deployedLinkReferences": {}
}