{
    "_format": "hh-sol-artifact-1",
    "contractName": "Vote",
    "sourceName": "contracts/Vote.sol",
    "abi": [
        {
            "inputs": [],
            "stateMutability": "nonpayable",
            "type": "constructor"
        },
        {
            "anonymous": false,
            "inputs": [
                {
                    "indexed": true,
                    "internalType": "uint256",
                    "name": "electionId",
                    "type": "uint256"
                },
                {
                    "indexed": true,
                    "internalType": "address",
                    "name": "creator",
                    "type": "address"
                },
                {
                    "indexed": false,
                    "internalType": "string",
                    "name": "details",
                    "type": "string"
                }
            ],
            "name": "ElectionCreated",
            "type": "event"
        },
        {
            "anonymous": false,
            "inputs": [
                {
                    "indexed": true,
                    "internalType": "uint256",
                    "name": "electionId",
                    "type": "uint256"
                },
                {
                    "indexed": true,
                    "internalType": "address",
                    "name": "creator",
                    "type": "address"
                },
                {
                    "indexed": false,
                    "internalType": "string",
                    "name": "details",
                    "type": "string"
                }
            ],
            "name": "ElectionEnded",
            "type": "event"
        },
        {
            "anonymous": false,
            "inputs": [
                {
                    "indexed": true,
                    "internalType": "uint256",
                    "name": "electionId",
                    "type": "uint256"
                },
                {
                    "indexed": true,
                    "internalType": "address",
                    "name": "creator",
                    "type": "address"
                },
                {
                    "indexed": false,
                    "internalType": "string",
                    "name": "details",
                    "type": "string"
                }
            ],
            "name": "ElectionStarted",
            "type": "event"
        },
        {
            "anonymous": false,
            "inputs": [
                {
                    "indexed": true,
                    "internalType": "uint256",
                    "name": "electionId",
                    "type": "uint256"
                },
                {
                    "indexed": true,
                    "internalType": "address",
                    "name": "voter",
                    "type": "address"
                },
                {
                    "indexed": true,
                    "internalType": "uint256",
                    "name": "candidateId",
                    "type": "uint256"
                }
            ],
            "name": "ElectionVoted",
            "type": "event"
        },
        {
            "anonymous": false,
            "inputs": [
                {
                    "indexed": false,
                    "internalType": "address",
                    "name": "account",
                    "type": "address"
                }
            ],
            "name": "Paused",
            "type": "event"
        },
        {
            "anonymous": false,
            "inputs": [
                {
                    "indexed": false,
                    "internalType": "address",
                    "name": "account",
                    "type": "address"
                }
            ],
            "name": "Unpaused",
            "type": "event"
        },
        {
            "inputs": [
                {
                    "internalType": "uint256",
                    "name": "",
                    "type": "uint256"
                }
            ],
            "name": "allCandidates",
            "outputs": [
                {
                    "internalType": "uint256",
                    "name": "electionId",
                    "type": "uint256"
                },
                {
                    "internalType": "uint256",
                    "name": "candidateId",
                    "type": "uint256"
                },
                {
                    "internalType": "string",
                    "name": "name",
                    "type": "string"
                },
                {
                    "internalType": "uint256",
                    "name": "vote",
                    "type": "uint256"
                }
            ],
            "stateMutability": "view",
            "type": "function"
        },
        {
            "inputs": [
                {
                    "internalType": "uint256",
                    "name": "",
                    "type": "uint256"
                }
            ],
            "name": "allElections",
            "outputs": [
                {
                    "internalType": "uint256",
                    "name": "electionId",
                    "type": "uint256"
                },
                {
                    "internalType": "address",
                    "name": "creator",
                    "type": "address"
                },
                {
                    "internalType": "address",
                    "name": "identifier",
                    "type": "address"
                },
                {
                    "internalType": "string",
                    "name": "details",
                    "type": "string"
                },
                {
                    "internalType": "bool",
                    "name": "active",
                    "type": "bool"
                }
            ],
            "stateMutability": "view",
            "type": "function"
        },
        {
            "inputs": [],
            "name": "booth",
            "outputs": [
                {
                    "components": [
                        {
                            "internalType": "uint256",
                            "name": "electionId",
                            "type": "uint256"
                        },
                        {
                            "internalType": "address",
                            "name": "creator",
                            "type": "address"
                        },
                        {
                            "internalType": "address",
                            "name": "identifier",
                            "type": "address"
                        },
                        {
                            "internalType": "string",
                            "name": "details",
                            "type": "string"
                        },
                        {
                            "internalType": "bool",
                            "name": "active",
                            "type": "bool"
                        },
                        {
                            "components": [
                                {
                                    "internalType": "uint256",
                                    "name": "electionId",
                                    "type": "uint256"
                                },
                                {
                                    "internalType": "uint256",
                                    "name": "candidateId",
                                    "type": "uint256"
                                },
                                {
                                    "internalType": "string",
                                    "name": "name",
                                    "type": "string"
                                },
                                {
                                    "internalType": "uint256",
                                    "name": "vote",
                                    "type": "uint256"
                                }
                            ],
                            "internalType": "struct Vote.Candidate[]",
                            "name": "candidates",
                            "type": "tuple[]"
                        }
                    ],
                    "internalType": "struct Vote.Election[]",
                    "name": "",
                    "type": "tuple[]"
                }
            ],
            "stateMutability": "view",
            "type": "function"
        },
        {
            "inputs": [],
            "name": "candidateId",
            "outputs": [
                {
                    "internalType": "uint256",
                    "name": "",
                    "type": "uint256"
                }
            ],
            "stateMutability": "view",
            "type": "function"
        },
        {
            "inputs": [],
            "name": "electionId",
            "outputs": [
                {
                    "internalType": "uint256",
                    "name": "",
                    "type": "uint256"
                }
            ],
            "stateMutability": "view",
            "type": "function"
        },
        {
            "inputs": [
                {
                    "internalType": "uint256",
                    "name": "_electionId",
                    "type": "uint256"
                }
            ],
            "name": "getWinner",
            "outputs": [
                {
                    "components": [
                        {
                            "internalType": "uint256",
                            "name": "electionId",
                            "type": "uint256"
                        },
                        {
                            "internalType": "uint256",
                            "name": "candidateId",
                            "type": "uint256"
                        },
                        {
                            "internalType": "string",
                            "name": "name",
                            "type": "string"
                        },
                        {
                            "internalType": "uint256",
                            "name": "vote",
                            "type": "uint256"
                        }
                    ],
                    "internalType": "struct Vote.Candidate[]",
                    "name": "",
                    "type": "tuple[]"
                },
                {
                    "internalType": "string",
                    "name": "",
                    "type": "string"
                }
            ],
            "stateMutability": "nonpayable",
            "type": "function"
        },
        {
            "inputs": [],
            "name": "myElections",
            "outputs": [
                {
                    "components": [
                        {
                            "internalType": "uint256",
                            "name": "electionId",
                            "type": "uint256"
                        },
                        {
                            "internalType": "address",
                            "name": "creator",
                            "type": "address"
                        },
                        {
                            "internalType": "address",
                            "name": "identifier",
                            "type": "address"
                        },
                        {
                            "internalType": "string",
                            "name": "details",
                            "type": "string"
                        },
                        {
                            "internalType": "bool",
                            "name": "active",
                            "type": "bool"
                        },
                        {
                            "components": [
                                {
                                    "internalType": "uint256",
                                    "name": "electionId",
                                    "type": "uint256"
                                },
                                {
                                    "internalType": "uint256",
                                    "name": "candidateId",
                                    "type": "uint256"
                                },
                                {
                                    "internalType": "string",
                                    "name": "name",
                                    "type": "string"
                                },
                                {
                                    "internalType": "uint256",
                                    "name": "vote",
                                    "type": "uint256"
                                }
                            ],
                            "internalType": "struct Vote.Candidate[]",
                            "name": "candidates",
                            "type": "tuple[]"
                        }
                    ],
                    "internalType": "struct Vote.Election[]",
                    "name": "",
                    "type": "tuple[]"
                }
            ],
            "stateMutability": "view",
            "type": "function"
        },
        {
            "inputs": [],
            "name": "owner",
            "outputs": [
                {
                    "internalType": "address",
                    "name": "",
                    "type": "address"
                }
            ],
            "stateMutability": "view",
            "type": "function"
        },
        {
            "inputs": [],
            "name": "pause",
            "outputs": [],
            "stateMutability": "nonpayable",
            "type": "function"
        },
        {
            "inputs": [],
            "name": "paused",
            "outputs": [
                {
                    "internalType": "bool",
                    "name": "",
                    "type": "bool"
                }
            ],
            "stateMutability": "view",
            "type": "function"
        },
        {
            "inputs": [
                {
                    "internalType": "address",
                    "name": "_identifier",
                    "type": "address"
                },
                {
                    "internalType": "string",
                    "name": "_details",
                    "type": "string"
                },
                {
                    "internalType": "string[]",
                    "name": "_candidate",
                    "type": "string[]"
                }
            ],
            "name": "setUp",
            "outputs": [],
            "stateMutability": "nonpayable",
            "type": "function"
        },
        {
            "inputs": [
                {
                    "internalType": "uint256",
                    "name": "_electionId",
                    "type": "uint256"
                }
            ],
            "name": "start",
            "outputs": [],
            "stateMutability": "nonpayable",
            "type": "function"
        },
        {
            "inputs": [],
            "name": "tie",
            "outputs": [
                {
                    "internalType": "string",
                    "name": "",
                    "type": "string"
                }
            ],
            "stateMutability": "view",
            "type": "function"
        },
        {
            "inputs": [],
            "name": "unpause",
            "outputs": [],
            "stateMutability": "nonpayable",
            "type": "function"
        },
        {
            "inputs": [
                {
                    "internalType": "uint256",
                    "name": "_candidateId",
                    "type": "uint256"
                },
                {
                    "internalType": "uint256",
                    "name": "_electionId",
                    "type": "uint256"
                }
            ],
            "name": "vote",
            "outputs": [],
            "stateMutability": "nonpayable",
            "type": "function"
        },
        {
            "inputs": [
                {
                    "internalType": "uint256",
                    "name": "",
                    "type": "uint256"
                },
                {
                    "internalType": "address",
                    "name": "",
                    "type": "address"
                }
            ],
            "name": "voted",
            "outputs": [
                {
                    "internalType": "bool",
                    "name": "",
                    "type": "bool"
                }
            ],
            "stateMutability": "view",
            "type": "function"
        }
    ],
    "bytecode": "0x60806040526000600155600060025534801561001a57600080fd5b5060008060006101000a81548160ff02191690831515021790555033600060016101000a81548173ffffffffffffffffffffffffffffffffffffffff021916908373ffffffffffffffffffffffffffffffffffffffff160217905550612e83806100856000396000f3fe608060405234801561001057600080fd5b50600436106101005760003560e01c80638456cb5911610097578063b384abef11610066578063b384abef14610266578063b402109314610282578063d6f5c939146102b6578063fc60c8b3146102d457610100565b80638456cb59146102045780638da5cb5b1461020e57806395805dad1461022c5780639f91e6bf1461024857610100565b806343e5ceec116100d357806343e5ceec1461017c5780635277b4ae146101985780635c975abb146101c857806366b6e859146101e657610100565b8063051364d4146101055780631ae08425146101235780633f4ba83a146101415780634129b2c91461014b575b600080fd5b61010d610307565b60405161011a9190612857565b60405180910390f35b61012b61030d565b60405161013891906126f6565b60405180910390f35b610149610755565b005b6101656004803603810190610160919061211f565b6107b9565b6040516101739291906126bf565b60405180910390f35b6101966004803603810190610191919061209b565b610cef565b005b6101b260048036038101906101ad9190612171565b611038565b6040516101bf9190612718565b60405180910390f35b6101d0611067565b6040516101dd9190612718565b60405180910390f35b6101ee61107d565b6040516101fb91906126f6565b60405180910390f35b61020c6114ff565b005b610216611563565b60405161022391906126a4565b60405180910390f35b6102466004803603810190610241919061211f565b611589565b005b61025061170b565b60405161025d9190612857565b60405180910390f35b610280600480360381019061027b91906121ad565b611711565b005b61029c6004803603810190610297919061211f565b611adf565b6040516102ad959493929190612872565b60405180910390f35b6102be611bea565b6040516102cb9190612733565b60405180910390f35b6102ee60048036038101906102e9919061211f565b611c78565b6040516102fe94939291906128cc565b60405180910390f35b60025481565b6060610317611067565b15610357576040517f08c379a000000000000000000000000000000000000000000000000000000000815260040161034e90612817565b60405180910390fd5b600080600254905060008167ffffffffffffffff8111156103a1577f4e487b7100000000000000000000000000000000000000000000000000000000600052604160045260246000fd5b6040519080825280602002602001820160405280156103da57816020015b6103c7611e7b565b8152602001906001900390816103bf5790505b50905060005b60025481101561074b5760011515600360006001846103ff9190612a8a565b815260200190815260200160002060040160009054906101000a900460ff1615151415610738576000600360006001846104399190612a8a565b81526020019081526020016000206000015490506000600360008381526020019081526020016000209050806040518060c0016040529081600082015481526020016001820160009054906101000a900473ffffffffffffffffffffffffffffffffffffffff1673ffffffffffffffffffffffffffffffffffffffff1673ffffffffffffffffffffffffffffffffffffffff1681526020016002820160009054906101000a900473ffffffffffffffffffffffffffffffffffffffff1673ffffffffffffffffffffffffffffffffffffffff1673ffffffffffffffffffffffffffffffffffffffff16815260200160038201805461053690612b6a565b80601f016020809104026020016040519081016040528092919081815260200182805461056290612b6a565b80156105af5780601f10610584576101008083540402835291602001916105af565b820191906000526020600020905b81548152906001019060200180831161059257829003601f168201915b505050505081526020016004820160009054906101000a900460ff1615151515815260200160058201805480602002602001604051908101604052809291908181526020016000905b828210156106da5783829060005260206000209060040201604051806080016040529081600082015481526020016001820154815260200160028201805461063f90612b6a565b80601f016020809104026020016040519081016040528092919081815260200182805461066b90612b6a565b80156106b85780601f1061068d576101008083540402835291602001916106b8565b820191906000526020600020905b81548152906001019060200180831161069b57829003601f168201915b50505050508152602001600382015481525050815260200190600101906105f8565b505050508152505084878151811061071b577f4e487b7100000000000000000000000000000000000000000000000000000000600052603260045260246000fd5b60200260200101819052506001866107339190612a8a565b955050505b808061074390612bcd565b9150506103e0565b5080935050505090565b600060019054906101000a900473ffffffffffffffffffffffffffffffffffffffff1673ffffffffffffffffffffffffffffffffffffffff163373ffffffffffffffffffffffffffffffffffffffff16146107af57600080fd5b6107b7611d30565b565b6060806107c4611067565b15610804576040517f08c379a00000000000000000000000000000000000000000000000000000000081526004016107fb90612817565b60405180910390fd5b3373ffffffffffffffffffffffffffffffffffffffff166003600085815260200190815260200160002060010160009054906101000a900473ffffffffffffffffffffffffffffffffffffffff1673ffffffffffffffffffffffffffffffffffffffff16146108a8576040517f08c379a000000000000000000000000000000000000000000000000000000000815260040161089f906127b7565b60405180910390fd5b60006003600085815260200190815260200160002060040160006101000a81548160ff021916908315150217905550600060015467ffffffffffffffff81111561091b577f4e487b7100000000000000000000000000000000000000000000000000000000600052604160045260246000fd5b60405190808252806020026020018201604052801561095457816020015b610941611edf565b8152602001906001900390816109395790505b509050600080806000905060005b600154811015610c5257876004600060018461097e9190612a8a565b8152602001908152602001600020600001541415610bdb5783600460006001846109a89190612a8a565b8152602001908152602001600020600301541115610b6257600460006001836109d19190612a8a565b81526020019081526020016000206003015493506000600460006001846109f89190612a8a565b81526020019081526020016000206001015490508093506000600460008381526020019081526020016000209050806040518060800160405290816000820154815260200160018201548152602001600282018054610a5690612b6a565b80601f0160208091040260200160405190810160405280929190818152602001828054610a8290612b6a565b8015610acf5780601f10610aa457610100808354040283529160200191610acf565b820191906000526020600020905b815481529060010190602001808311610ab257829003601f168201915b50505050508152602001600382015481525050878581518110610b1b577f4e487b7100000000000000000000000000000000000000000000000000000000600052603260045260246000fd5b6020026020010181905250600184610b339190612a8a565b93506040518060200160405280600081525060069080519060200190610b5a929190611f07565b505050610bda565b8360046000600184610b749190612a8a565b8152602001908152602001600020600301541415610bd9576040518060400160405280601381526020017f5468697320656e64656420696e2061207469650000000000000000000000000081525060069080519060200190610bd7929190611f07565b505b5b5b3373ffffffffffffffffffffffffffffffffffffffff16887fc2959c10dc152aeb8c97eb93ad4eb0cbf30909633cc32c140927b7f3325d44b1600360008c8152602001908152602001600020600301604051610c379190612755565b60405180910390a38080610c4a90612bcd565b915050610962565b50836006808054610c6290612b6a565b80601f0160208091040260200160405190810160405280929190818152602001828054610c8e90612b6a565b8015610cdb5780601f10610cb057610100808354040283529160200191610cdb565b820191906000526020600020905b815481529060010190602001808311610cbe57829003601f168201915b505050505090509550955050505050915091565b610cf7611067565b15610d37576040517f08c379a0000000000000000000000000000000000000000000000000000000008152600401610d2e90612817565b60405180910390fd5b60026000815480929190610d4a90612bcd565b9190505550600060036000600254815260200190815260200160002090506002548160000181905550338160010160006101000a81548173ffffffffffffffffffffffffffffffffffffffff021916908373ffffffffffffffffffffffffffffffffffffffff160217905550848160020160006101000a81548173ffffffffffffffffffffffffffffffffffffffff021916908373ffffffffffffffffffffffffffffffffffffffff16021790555083816003019080519060200190610e11929190611f07565b5060008160040160006101000a81548160ff02191690831515021790555060005b83839050811015610fdf5760016000815480929190610e5090612bcd565b91905055506000604051806080016040528060025481526020016001548152602001868685818110610eab577f4e487b7100000000000000000000000000000000000000000000000000000000600052603260045260246000fd5b9050602002810190610ebd9190612918565b8080601f016020809104026020016040519081016040528093929190818152602001838380828437600081840152601f19601f820116905080830192505050505050508152602001600081525090508060046000600154815260200190815260200160002060008201518160000155602082015181600101556040820151816002019080519060200190610f52929190611f07565b50606082015181600301559050508260050181908060018154018082558091505060019003906000526020600020906004020160009091909190915060008201518160000155602082015181600101556040820151816002019080519060200190610fbe929190611f07565b50606082015181600301555050508080610fd790612bcd565b915050610e32565b503373ffffffffffffffffffffffffffffffffffffffff166002547f0899cd1399cb5255769838bb5633e6d9fc0b49629382ae5b27bbaebd44d31870866040516110299190612733565b60405180910390a35050505050565b60056020528160005260406000206020528060005260406000206000915091509054906101000a900460ff1681565b60008060009054906101000a900460ff16905090565b6060611087611067565b156110c7576040517f08c379a00000000000000000000000000000000000000000000000000000000081526004016110be90612817565b60405180910390fd5b600080600254905060008167ffffffffffffffff811115611111577f4e487b7100000000000000000000000000000000000000000000000000000000600052604160045260246000fd5b60405190808252806020026020018201604052801561114a57816020015b611137611e7b565b81526020019060019003908161112f5790505b50905060005b6002548110156114f5573373ffffffffffffffffffffffffffffffffffffffff16600360006001846111829190612a8a565b815260200190815260200160002060010160009054906101000a900473ffffffffffffffffffffffffffffffffffffffff1673ffffffffffffffffffffffffffffffffffffffff1614156114e2576000600360006001846111e39190612a8a565b81526020019081526020016000206000015490506000600360008381526020019081526020016000209050806040518060c0016040529081600082015481526020016001820160009054906101000a900473ffffffffffffffffffffffffffffffffffffffff1673ffffffffffffffffffffffffffffffffffffffff1673ffffffffffffffffffffffffffffffffffffffff1681526020016002820160009054906101000a900473ffffffffffffffffffffffffffffffffffffffff1673ffffffffffffffffffffffffffffffffffffffff1673ffffffffffffffffffffffffffffffffffffffff1681526020016003820180546112e090612b6a565b80601f016020809104026020016040519081016040528092919081815260200182805461130c90612b6a565b80156113595780601f1061132e57610100808354040283529160200191611359565b820191906000526020600020905b81548152906001019060200180831161133c57829003601f168201915b505050505081526020016004820160009054906101000a900460ff1615151515815260200160058201805480602002602001604051908101604052809291908181526020016000905b82821015611484578382906000526020600020906004020160405180608001604052908160008201548152602001600182015481526020016002820180546113e990612b6a565b80601f016020809104026020016040519081016040528092919081815260200182805461141590612b6a565b80156114625780601f1061143757610100808354040283529160200191611462565b820191906000526020600020905b81548152906001019060200180831161144557829003601f168201915b50505050508152602001600382015481525050815260200190600101906113a2565b50505050815250508487815181106114c5577f4e487b7100000000000000000000000000000000000000000000000000000000600052603260045260246000fd5b60200260200101819052506001866114dd9190612a8a565b955050505b80806114ed90612bcd565b915050611150565b5080935050505090565b600060019054906101000a900473ffffffffffffffffffffffffffffffffffffffff1673ffffffffffffffffffffffffffffffffffffffff163373ffffffffffffffffffffffffffffffffffffffff161461155957600080fd5b611561611dd1565b565b600060019054906101000a900473ffffffffffffffffffffffffffffffffffffffff1681565b611591611067565b156115d1576040517f08c379a00000000000000000000000000000000000000000000000000000000081526004016115c890612817565b60405180910390fd5b3373ffffffffffffffffffffffffffffffffffffffff166003600083815260200190815260200160002060010160009054906101000a900473ffffffffffffffffffffffffffffffffffffffff1673ffffffffffffffffffffffffffffffffffffffff1614611675576040517f08c379a000000000000000000000000000000000000000000000000000000000815260040161166c90612797565b60405180910390fd5b60016003600083815260200190815260200160002060040160006101000a81548160ff0219169083151502179055503373ffffffffffffffffffffffffffffffffffffffff16817f1d3e6ecc72c1aaf1c7fe256cec431aef548abfec22c0b229ac7462e7e03b8199600360008581526020019081526020016000206003016040516117009190612755565b60405180910390a350565b60015481565b611719611067565b15611759576040517f08c379a000000000000000000000000000000000000000000000000000000000815260040161175090612817565b60405180910390fd5b600015156005600083815260200190815260200160002060003373ffffffffffffffffffffffffffffffffffffffff1673ffffffffffffffffffffffffffffffffffffffff16815260200190815260200160002060009054906101000a900460ff161515146117fd576040517f08c379a00000000000000000000000000000000000000000000000000000000081526004016117f4906127f7565b60405180910390fd5b600115156003600083815260200190815260200160002060040160009054906101000a900460ff16151514611867576040517f08c379a000000000000000000000000000000000000000000000000000000000815260040161185e90612837565b60405180910390fd5b60006003600083815260200190815260200160002060020160009054906101000a900473ffffffffffffffffffffffffffffffffffffffff16905060008173ffffffffffffffffffffffffffffffffffffffff166370a08231336040518263ffffffff1660e01b81526004016118dd91906126a4565b60206040518083038186803b1580156118f557600080fd5b505afa158015611909573d6000803e3d6000fd5b505050506040513d601f19601f8201168201806040525081019061192d9190612148565b11806119c1575060008173ffffffffffffffffffffffffffffffffffffffff166370a08231336040518263ffffffff1660e01b815260040161196f91906126a4565b60206040518083038186803b15801561198757600080fd5b505afa15801561199b573d6000803e3d6000fd5b505050506040513d601f19601f820116820180604052508101906119bf9190612148565b115b611a00576040517f08c379a00000000000000000000000000000000000000000000000000000000081526004016119f7906127d7565b60405180910390fd5b600460008481526020019081526020016000206003016000815480929190611a2790612bcd565b919050555060016005600084815260200190815260200160002060003373ffffffffffffffffffffffffffffffffffffffff1673ffffffffffffffffffffffffffffffffffffffff16815260200190815260200160002060006101000a81548160ff021916908315150217905550823373ffffffffffffffffffffffffffffffffffffffff16837f30ff8c64c6bb707ec8eeb12d2666180d07e3455d987db0bfa83152dd735d7adc60405160405180910390a4505050565b60036020528060005260406000206000915090508060000154908060010160009054906101000a900473ffffffffffffffffffffffffffffffffffffffff16908060020160009054906101000a900473ffffffffffffffffffffffffffffffffffffffff1690806003018054611b5490612b6a565b80601f0160208091040260200160405190810160405280929190818152602001828054611b8090612b6a565b8015611bcd5780601f10611ba257610100808354040283529160200191611bcd565b820191906000526020600020905b815481529060010190602001808311611bb057829003601f168201915b5050505050908060040160009054906101000a900460ff16905085565b60068054611bf790612b6a565b80601f0160208091040260200160405190810160405280929190818152602001828054611c2390612b6a565b8015611c705780601f10611c4557610100808354040283529160200191611c70565b820191906000526020600020905b815481529060010190602001808311611c5357829003601f168201915b505050505081565b6004602052806000526040600020600091509050806000015490806001015490806002018054611ca790612b6a565b80601f0160208091040260200160405190810160405280929190818152602001828054611cd390612b6a565b8015611d205780601f10611cf557610100808354040283529160200191611d20565b820191906000526020600020905b815481529060010190602001808311611d0357829003601f168201915b5050505050908060030154905084565b611d38611067565b611d77576040517f08c379a0000000000000000000000000000000000000000000000000000000008152600401611d6e90612777565b60405180910390fd5b60008060006101000a81548160ff0219169083151502179055507f5db9ee0a495bf2e6ff9c91a7834c1ba4fdd244a5e8aa4e537bd38aeae4b073aa611dba611e73565b604051611dc791906126a4565b60405180910390a1565b611dd9611067565b15611e19576040517f08c379a0000000000000000000000000000000000000000000000000000000008152600401611e1090612817565b60405180910390fd5b60016000806101000a81548160ff0219169083151502179055507f62e78cea01bee320cd4e420270b5ea74000d11b0c9f74754ebdbfc544b05a258611e5c611e73565b604051611e6991906126a4565b60405180910390a1565b600033905090565b6040518060c0016040528060008152602001600073ffffffffffffffffffffffffffffffffffffffff168152602001600073ffffffffffffffffffffffffffffffffffffffff16815260200160608152602001600015158152602001606081525090565b6040518060800160405280600081526020016000815260200160608152602001600081525090565b828054611f1390612b6a565b90600052602060002090601f016020900481019282611f355760008555611f7c565b82601f10611f4e57805160ff1916838001178555611f7c565b82800160010185558215611f7c579182015b82811115611f7b578251825591602001919060010190611f60565b5b509050611f899190611f8d565b5090565b5b80821115611fa6576000816000905550600101611f8e565b5090565b6000611fbd611fb884612994565b61296f565b905082815260208101848484011115611fd557600080fd5b611fe0848285612b28565b509392505050565b600081359050611ff781612e1f565b92915050565b60008083601f84011261200f57600080fd5b8235905067ffffffffffffffff81111561202857600080fd5b60208301915083602082028301111561204057600080fd5b9250929050565b600082601f83011261205857600080fd5b8135612068848260208601611faa565b91505092915050565b60008135905061208081612e36565b92915050565b60008151905061209581612e36565b92915050565b600080600080606085870312156120b157600080fd5b60006120bf87828801611fe8565b945050602085013567ffffffffffffffff8111156120dc57600080fd5b6120e887828801612047565b935050604085013567ffffffffffffffff81111561210557600080fd5b61211187828801611ffd565b925092505092959194509250565b60006020828403121561213157600080fd5b600061213f84828501612071565b91505092915050565b60006020828403121561215a57600080fd5b600061216884828501612086565b91505092915050565b6000806040838503121561218457600080fd5b600061219285828601612071565b92505060206121a385828601611fe8565b9150509250929050565b600080604083850312156121c057600080fd5b60006121ce85828601612071565b92505060206121df85828601612071565b9150509250929050565b60006121f58383612593565b905092915050565b600061220983836125f6565b905092915050565b61221a81612ae0565b82525050565b61222981612ae0565b82525050565b600061223a826129fa565b6122448185612a35565b935083602082028501612256856129c5565b8060005b85811015612292578484038952815161227385826121e9565b945061227e83612a1b565b925060208a0199505060018101905061225a565b50829750879550505050505092915050565b60006122af826129fa565b6122b98185612a46565b9350836020820285016122cb856129c5565b8060005b8581101561230757848403895281516122e885826121e9565b94506122f383612a1b565b925060208a019950506001810190506122cf565b50829750879550505050505092915050565b600061232482612a05565b61232e8185612a57565b935083602082028501612340856129d5565b8060005b8581101561237c578484038952815161235d85826121fd565b945061236883612a28565b925060208a01995050600181019050612344565b50829750879550505050505092915050565b61239781612af2565b82525050565b6123a681612af2565b82525050565b60006123b782612a10565b6123c18185612a68565b93506123d1818560208601612b37565b6123da81612ca3565b840191505092915050565b60006123f082612a10565b6123fa8185612a79565b935061240a818560208601612b37565b61241381612ca3565b840191505092915050565b6000815461242b81612b6a565b6124358186612a79565b94506001821660008114612450576001811461246257612495565b60ff1983168652602086019350612495565b61246b856129e5565b60005b8381101561248d5781548189015260018201915060208101905061246e565b808801955050505b50505092915050565b60006124ab601483612a79565b91506124b682612cb4565b602082019050919050565b60006124ce602483612a79565b91506124d982612cdd565b604082019050919050565b60006124f1602383612a79565b91506124fc82612d2c565b604082019050919050565b6000612514601f83612a79565b915061251f82612d7b565b602082019050919050565b6000612537601683612a79565b915061254282612da4565b602082019050919050565b600061255a601083612a79565b915061256582612dcd565b602082019050919050565b600061257d601783612a79565b915061258882612df6565b602082019050919050565b60006080830160008301516125ab6000860182612686565b5060208301516125be6020860182612686565b50604083015184820360408601526125d682826123ac565b91505060608301516125eb6060860182612686565b508091505092915050565b600060c08301600083015161260e6000860182612686565b5060208301516126216020860182612211565b5060408301516126346040860182612211565b506060830151848203606086015261264c82826123ac565b9150506080830151612661608086018261238e565b5060a083015184820360a0860152612679828261222f565b9150508091505092915050565b61268f81612b1e565b82525050565b61269e81612b1e565b82525050565b60006020820190506126b96000830184612220565b92915050565b600060408201905081810360008301526126d981856122a4565b905081810360208301526126ed81846123e5565b90509392505050565b600060208201905081810360008301526127108184612319565b905092915050565b600060208201905061272d600083018461239d565b92915050565b6000602082019050818103600083015261274d81846123e5565b905092915050565b6000602082019050818103600083015261276f818461241e565b905092915050565b600060208201905081810360008301526127908161249e565b9050919050565b600060208201905081810360008301526127b0816124c1565b9050919050565b600060208201905081810360008301526127d0816124e4565b9050919050565b600060208201905081810360008301526127f081612507565b9050919050565b600060208201905081810360008301526128108161252a565b9050919050565b600060208201905081810360008301526128308161254d565b9050919050565b6000602082019050818103600083015261285081612570565b9050919050565b600060208201905061286c6000830184612695565b92915050565b600060a0820190506128876000830188612695565b6128946020830187612220565b6128a16040830186612220565b81810360608301526128b381856123e5565b90506128c2608083018461239d565b9695505050505050565b60006080820190506128e16000830187612695565b6128ee6020830186612695565b818103604083015261290081856123e5565b905061290f6060830184612695565b95945050505050565b6000808335600160200384360303811261293157600080fd5b80840192508235915067ffffffffffffffff82111561294f57600080fd5b60208301925060018202360383131561296757600080fd5b509250929050565b600061297961298a565b90506129858282612b9c565b919050565b6000604051905090565b600067ffffffffffffffff8211156129af576129ae612c74565b5b6129b882612ca3565b9050602081019050919050565b6000819050602082019050919050565b6000819050602082019050919050565b60008190508160005260206000209050919050565b600081519050919050565b600081519050919050565b600081519050919050565b6000602082019050919050565b6000602082019050919050565b600082825260208201905092915050565b600082825260208201905092915050565b600082825260208201905092915050565b600082825260208201905092915050565b600082825260208201905092915050565b6000612a9582612b1e565b9150612aa083612b1e565b9250827fffffffffffffffffffffffffffffffffffffffffffffffffffffffffffffffff03821115612ad557612ad4612c16565b5b828201905092915050565b6000612aeb82612afe565b9050919050565b60008115159050919050565b600073ffffffffffffffffffffffffffffffffffffffff82169050919050565b6000819050919050565b82818337600083830152505050565b60005b83811015612b55578082015181840152602081019050612b3a565b83811115612b64576000848401525b50505050565b60006002820490506001821680612b8257607f821691505b60208210811415612b9657612b95612c45565b5b50919050565b612ba582612ca3565b810181811067ffffffffffffffff82111715612bc457612bc3612c74565b5b80604052505050565b6000612bd882612b1e565b91507fffffffffffffffffffffffffffffffffffffffffffffffffffffffffffffffff821415612c0b57612c0a612c16565b5b600182019050919050565b7f4e487b7100000000000000000000000000000000000000000000000000000000600052601160045260246000fd5b7f4e487b7100000000000000000000000000000000000000000000000000000000600052602260045260246000fd5b7f4e487b7100000000000000000000000000000000000000000000000000000000600052604160045260246000fd5b6000601f19601f8301169050919050565b7f5061757361626c653a206e6f7420706175736564000000000000000000000000600082015250565b7f6f6e6c79206d6f64657261746f722063616e20737461727420616e20656c656360008201527f74696f6e00000000000000000000000000000000000000000000000000000000602082015250565b7f6f6e6c79206d6f64657261746f72732063616e20616e6e6f756e63652077696e60008201527f6e65720000000000000000000000000000000000000000000000000000000000602082015250565b7f6f6e6c79207265676973746572656420766f746572732063616e20766f746500600082015250565b7f796f75206861766520616c726561647920766f74656400000000000000000000600082015250565b7f5061757361626c653a2070617573656400000000000000000000000000000000600082015250565b7f656c656374696f6e2068617665206e6f7420626567756e000000000000000000600082015250565b612e2881612ae0565b8114612e3357600080fd5b50565b612e3f81612b1e565b8114612e4a57600080fd5b5056fea26469706673582212201d74541da2d9d57ed34124f4cfdbc0c65e897f3046f0cedfdccedf0c885444ec64736f6c63430008040033",
    "linkReferences": {},
    "deployedLinkReferences": {}
}